:100000000C9434000C9451000C9451000C94510049
:100010000C9451000C9451000C9451000C9451001C
:100020000C9451000C9451000C9451000C949502C6
:100030000C9451000C9451000C9451000C945100FC
:100040000C9451000C9451000C94A4020C94510097
:100050000C9451000C9451000C9451000C945100DC
:100060000C9451000C94510011241FBECFEFD8E026
:10007000DEBFCDBF11E0A0E0B1E0EAEFFBE002C0DF
:1000800005900D92AA33B107D9F721E0AAE3B1E0B8
:1000900001C01D92AF33B207E1F70E9490010C94AA
:1000A000FB050C94000080E480937C0087E880933B
:1000B0007A0008958770ECE7F0E09081907F892BBB
:1000C0008083EAE7F0E080818064808380917A0019
:1000D00086FDFCCF809178009091790008951F9360
:1000E000CF93DF93EC01862F142FE881F9810995D6
:1000F000EC81FD81812F0995EE81FF8181E090E007
:100100000995EA81FB8181E00995EE81FF8181E01B
:1001100090E00995EA81FB8180E00995EE81FF81FD
:1001200081E090E00995DF91CF911F9108950F93A1
:100130001F93CF938C01C62F462F60E00E946F0063
:10014000C150C23048F4D8011896ED91FC9119972E
:1001500082E090E0099508C0D8011696ED91FC91D7
:1001600017978DE290E00995CF911F910F91089517
:10017000CF93DF93EC01462F61E00E946F00EE8188
:10018000FF818DE290E00995DF91CF91089561E0C4
:100190000E9497000895CF93DF93EC016D874E87FF
:1001A00080E18A87423010F088E001C080E0806101
:1001B0008A87222321F0413011F484608A87E88104
:1001C000F98180E00995EA81FB8180E00995E88565
:1001D000F98582E390E009956A856062CE010E940C
:1001E0009700E885F98585E090E009956A85606269
:1001F000CE010E949700EE81FF8186E990E009958B
:100200006A856062CE010E949700EE81FF8186E9D7
:1002100090E0099584E08B876CE0CE010E94970006
:10022000CE010E94C70082E08C8766E0CE010E946A
:100230009700DF91CF910895443008F043E0FC012E
:100240002685421710F04FEF420FE42FF0E0E05008
:10025000FF4F2081620F60680E94970008950F93FE
:100260001F93CF93DF938C01EB0104C02196C8014B
:100270000E94B80068816111F9CFDF91CF911F9181
:100280000F910895882321F08BB184608BB9089574
:100290008BB18B7F8BB90895882321F08BB1886057
:1002A0008BB908958BB1877F8BB908959BB140E1DD
:1002B000849F900111249F70292B2BB995B1907FB9
:1002C00082958F70892B85B908959C012150310941
:1002D000892B31F085E08A95F1F70000C901F5CF4F
:1002E00008959C0121503109892B41F08FE99FE04D
:1002F0000197F1F700C00000C901F3CF08951092F3
:1003000080008DE08093810084E39CE090938900DD
:1003100080938800EFE6F0E080818260808308951A
:10032000CF93DF93CDB7DEB7C155D1090FB6F8949F
:10033000DEBF0FBECDBF8AB18C6F8AB984B18F602A
:1003400084B982E491E09A8389838CE491E09C8370
:100350008B8386E591E09E838D8385E691E0988787
:100360008F8381E791E09A8789870E9453000E94DA
:10037000B70220E042E060E1CE0101960E94CB008E
:100380000E947F01789480913B018F9380913A0184
:100390008F9384E091E09F938F938E010F5D1F4FA9
:1003A0001F930F930E94110341E060E0CE0101967C
:1003B0000E941C01B801CE0101960E942F010F90EE
:1003C0000F900F900F900F900F9080913E01882317
:1003D00009F468C010923E0180E00E945A008C012E
:1003E00081E00E945A00B82EA92E9801A8E8B3E136
:1003F0000E9402036B017C012FEF33E040E050E0EC
:100400000E94E00229013A01C701B60128E13CE956
:100410004FE050E00E94E002F22EE32EC301B20151
:1004200028EE33E040E050E00E94E0022AE030E0B5
:1004300040E050E00E94E002D22EC32EAF92BF9265
:100440003F932F93EF92FF928BE091E09F938F93D6
:100450008E01005F1F4F1F930F930E94110340E016
:1004600060E0CE0101960E941C01B801CE01019608
:100470000E942F01AF92BF92CF92DF92EF92FF9234
:100480008DE191E09F938F930E5D1F4F1F930F930C
:100490000E941103C8010E94D3020FB6F894DEBF78
:1004A0000FBECDBF80913D01882309F48ECF1092FD
:1004B0003D0180913C018B3251F480913A01909141
:1004C0003B01019690933B0180933A010BC08D3222
:1004D00049F480913A0190913B01019790933B013F
:1004E00080933A0180913B018F9380913A018F93E1
:1004F00080E391E09F938F938E010F5D1F4F1F93B9
:100500000F930E94110341E060E0CE0101960E942A
:100510001C01B801CE0101960E942F010F900F908F
:100520000F900F900F900F9050CF1F920F920FB619
:100530000F9211248F9381E080933E018F910F9051
:100540000FBE0F901F9018951F920F920FB60F922B
:1005500011248F938091C60080933C0181E08093A9
:100560003D018F910F900FBE0F901F9018958AB18B
:100570008E7F8AB98AB182608AB91092C00088E9F8
:100580008093C10086E08093C20087E690E090935C
:10059000C5008093C40008959091C00095FFFCCFE2
:1005A0008093C6000895CF93DF93EC0103C00E94AF
:1005B000CC02219688818111FACFDF91CF910895E5
:1005C000A1E21A2EAA1BBB1BFD010DC0AA1FBB1F57
:1005D000EE1FFF1FA217B307E407F50720F0A21BC9
:1005E000B30BE40BF50B661F771F881F991F1A9436
:1005F00069F760957095809590959B01AC01BD0160
:10060000CF010895A29FB001B39FC001A39F700DB9
:10061000811D1124911DB29F700D811D1124911D0A
:100620000895AEE0B0E0E7E1F3E00C94D2050D8967
:100630001E8986E08C831A8309838FEF9FE79E8350
:100640008D83AE01475E5F4F6F89788DCE01019635
:100650000E943303EF81F885E00FF11F10822E9680
:10066000E4E00C94EE05ABE0B0E0E9E3F3E00C94D9
:10067000C4056C017B018A01FC011782168283810B
:1006800081FFCCC1CE0101963C01F6019381F701B7
:1006900093FD859193FF81917F01882309F4BAC16D
:1006A000853239F493FD859193FF81917F018532E5
:1006B00029F4B60190E00E942A05E7CF912C212C65
:1006C000312CFFE1F315D8F08B3279F038F4803219
:1006D00079F08332A1F4232D20611DC08D3261F0A9
:1006E000803369F4232D216016C0832D8260382E5B
:1006F000E32DE4603E2E2AC0F32DF8601DC037FCC8
:100700002DC020ED280F2A3040F08E32B9F436FC8F
:1007100081C1232D2064322E19C036FE06C08AE026
:10072000989E200D1124922E11C0EAE02E9E200DDD
:100730001124222EF32DF0623F2E08C08C3621F4B6
:10074000832D8068382E02C0883641F4F70193FD6E
:10075000859193FF81917F018111B3CF982F9F7D68
:100760009554933028F40C5F1F4F9FE399830DC07D
:10077000833631F0833771F0833509F059C021C0D9
:10078000F801808189830E5F1F4F88248394912C08
:10079000530113C02801F2E04F0E511CF801A08054
:1007A000B18036FE03C0692D70E002C06FEF7FEFAD
:1007B000C5010E941F054C018201F32DFF773F2EDA
:1007C00016C0280122E0420E511CF801A080B18021
:1007D00036FE03C0692D70E002C06FEF7FEFC501E8
:1007E0000E9414054C01F32DF0683F2E820133FC6A
:1007F0001BC0822D90E088169906B0F4B60180E205
:1008000090E00E942A052A94F4CFF50137FC8591E7
:1008100037FE81915F01B60190E00E942A05211008
:100820002A9421E0821A91088114910471F7E8C09A
:10083000843611F0893641F5F80137FE07C0608132
:100840007181828193810C5F1F4F08C0608171812B
:10085000072E000C880B990B0E5F1F4FF32DFF76B0
:100860003F2E97FF09C090958095709561957F4FB9
:100870008F4F9F4FF0683F2E2AE030E0A3010E9487
:100880006605882E861845C0853731F4232D2F7EC6
:10089000B22E2AE030E025C0932D997FB92E8F36F5
:1008A000C1F018F4883579F0B5C0803719F0883771
:1008B00021F0B0C0E92FE061BE2EB4FE0DC0FB2DCB
:1008C000F460BF2E09C034FE0AC0292F2660B22E64
:1008D00006C028E030E005C020E130E002C020E1A1
:1008E00032E0F801B7FE07C0608171818281938197
:1008F0000C5F1F4F06C06081718180E090E00E5F49
:100900001F4FA3010E946605882E8618FB2DFF77D6
:100910003F2E36FE0DC0232D2E7FA22E891458F4B3
:1009200034FE0BC032FC09C0832D8E7EA82E05C07C
:10093000B82CA32C03C0B82C01C0B92CA4FE0FC046
:10094000FE01E80DF11D8081803321F49A2D997EFE
:10095000A92E09C0A2FE06C0B394B39404C08A2D88
:10096000867809F0B394A3FC11C0A0FE06C0B214AF
:1009700088F4280C922C9B180EC0B21460F4B601B7
:1009800080E290E00E942A05B394F7CFB21418F4E5
:100990002B1802C0982C212CA4FE10C0B60180E3B5
:1009A00090E00E942A05A2FE17C0A1FC03C088E7C0
:1009B00090E002C088E590E0B6010CC08A2D8678F0
:1009C00059F0A1FE02C08BE201C080E2A7FC8DE2DB
:1009D000B60190E00E942A05891438F4B60180E33C
:1009E00090E00E942A059A94F7CF8A94F301E80DCB
:1009F000F11D8081B60190E00E942A058110F5CF9B
:100A0000222009F442CEB60180E290E00E942A053D
:100A10002A94F6CFF6018681978102C08FEF9FEF6F
:100A20002B96E2E10C94E005FC01059061507040CA
:100A30000110D8F7809590958E0F9F1F0895FC01A7
:100A40006150704001900110D8F7809590958E0FFD
:100A50009F1F08950F931F93CF93DF93FB01238173
:100A600021FD03C08FEF9FEF2CC022FF16C04681EF
:100A70005781248135814217530744F4A081B18105
:100A80009D012F5F3F4F318320838C9326813781D7
:100A90002F5F3F4F3783268314C08B01EC01FB018E
:100AA0000084F185E02D0995892BE1F6D801169691
:100AB0008D919C911797019617969C938E931697FC
:100AC000CE01DF91CF911F910F910895FA01AA27CE
:100AD000283051F1203181F1E8946F936E7F6E5F81
:100AE0007F4F8F4F9F4FAF4FB1E03ED0B4E03CD02F
:100AF000670F781F891F9A1FA11D680F791F8A1F12
:100B0000911DA11D6A0F711D811D911DA11D20D078
:100B100009F468943F912AE0269F11243019305D32
:100B20003193DEF6CF010895462F4770405D419323
:100B3000B3E00FD0C9F7F6CF462F4F70405D4A3370
:100B400018F0495D31FD4052419302D0A9F7EACF38
:100B5000B4E0A6959795879577956795BA95C9F767
:100B600000976105710508959B01AC010A2E06945A
:100B70005795479537952795BA95C9F7620F731F13
:100B8000841F951FA01D08952F923F924F925F9250
:100B90006F927F928F929F92AF92BF92CF92DF928D
:100BA000EF92FF920F931F93CF93DF93CDB7DEB7F2
:100BB000CA1BDB0B0FB6F894DEBF0FBECDBF099486
:100BC0002A88398848885F846E847D848C849B84DD
:100BD000AA84B984C884DF80EE80FD800C811B81EB
:100BE000AA81B981CE0FD11D0FB6F894DEBF0FBE1A
:0A0BF000CDBFED010895F894FFCF8A
:100BFA0000401454434E543A25640056313A257540
:100C0A002E253032752044323A2534750056313A51
:100C1A0025752E253032752C44323A25750D0A0079
:0A0C2A00434E543A256420202000B8
:00000001FF
