S01100004C6162335F646967322E737265630C
S11300000C9434000C9449000C9449000C9449005D
S11300100C9449000C9449000C9449000C94490038
S11300200C9449000C9449000C9449000C94490028
S11300300C9449000C9449000C9449000C94490018
S11300400C9449000C9449000C9449000C94490008
S11300500C9449000C9449000C9449000C944900F8
S11300600C9449000C94490011241FBECFEFD8E032
S1130070DEBFCDBF11E0A0E0B1E0E2EDF1E002C0EF
S113008005900D92A631B107D9F70E9469000C942E
S1130090E7000C94000080E480937C0087E8809360
S11300A07A0008958770ECE7F0E09081907F892BC7
S11300B08083EAE7F0E080818064808380917A0025
S11300C086FDFCCF809178009091790008958BB9DA
S11300D008958FEF8AB961E070E080E093E00E94B8
S11300E0A9000E944B0080E00E94520096958795DB
S11300F096958795D82F81E00E9452009695879512
S113010096958795C82F0E94E0008130D9F48D2FF1
S11301100E94E5000E94E0008C2F0E94E5000E94EE
S1130120E00080E00E945200969587959695879509
S1130130D82F81E00E9452009695879596958795D1
S1130140C82FE1CF8230F9F60E94E0000E946700D8
S1130150DACF61110AC024B12C6224B924B12F7EF4
S113016024B925B1246025B906C024B1206124B97D
S113017024B1237D24B9662311F020E401C020E5D5
S1130180713009F4206281FD286080FD24606111D2
S113019013C0E92FF0E0CF01880F991FE80FF91F72
S11301A0E050FF4F908141813281892F90E0880F88
S11301B0991F842B282B01C030E02CBD3DBD089530
S11301C00DB407FEFDCF8EB508958EBD0895F89445
S10501D0FFCF5B
S11301D20000010000000001010001000100010112
S10901E200000101000011
S9030000FC
