:100000000C9434000C9451000C9451000C94510049
:100010000C9451000C9451000C9451000C9451001C
:100020000C9451000C9451000C9451000C9451000C
:100030000C9451000C9451000C9451000C945100FC
:100040000C9451000C9451000C94C2000C9451007B
:100050000C9451000C9451000C9451000C945100DC
:100060000C9451000C94510011241FBECFEFD8E026
:10007000DEBFCDBF11E0A0E0B1E0EEE4F8E002C0E9
:1000800005900D92AE32B107D9F721E0AEE2B1E0B2
:1000900001C01D92A033B207E1F70E946D000C94DD
:1000A00025040C9400008AB18C6F8AB984B18360F6
:1000B00084B908959BB1282F30E0220F331F220FFF
:1000C000331F9370292B2BB995B19C7F8295869510
:1000D00086958370892B85B90895CF93DF93CDB72B
:1000E000DEB7A0970FB6F894DEBF0FBECDBF0E945B
:1000F000530060E070E080E093E00E94D5000E9431
:100100001201789480912E018823A1F010922E0183
:1001100080912F010E945A0085B18B7F85B982E0C2
:100120000E940C0180912F010E940C0185B1846016
:1001300085B9E8CF85B18B7F85B981E00E940C013C
:100140008FEF0E940C01182F8FEF0E940C0195B1C8
:10015000946095B91F928F931F921F9380E091E056
:100160009F938F938E010F5F1F4F1F930F930E94DA
:100170003B01C8010E942E010FB6F894DEBF0FBEEE
:10018000CDBFC0CF1F920F920FB60F9211248F9345
:100190008091C60080932F0181E080932E018F9182
:1001A0000F900FBE0F901F90189561110AC024B1D7
:1001B0002C6224B924B12F7E24B925B1246025B93D
:1001C00006C024B1206124B924B1237D24B966235B
:1001D00011F020E401C020E5713009F4206281FDB6
:1001E000286080FD2460611113C0E92FF0E0CF0189
:1001F000880F991FE80FF91FE85EFE4F908141813B
:100200003281892F90E0880F991F842B282B01C001
:1002100030E02CBD3DBD08958EBD0DB407FEFDCF71
:100220008EB508958AB18E7F8AB98AB182608AB903
:100230001092C00088E98093C10086E08093C200DC
:1002400087E690E09093C5008093C4000895909154
:10025000C00095FFFCCF8093C6000895CF93DF9335
:10026000EC0103C00E942701219688818111FACFF9
:10027000DF91CF910895AEE0B0E0E1E4F1E00C94BD
:10028000FC030D891E8986E08C831A8309838FEF16
:100290009FE79E838D83AE01475E5F4F6F89788DA8
:1002A000CE0101960E945D01EF81F885E00FF11FFC
:1002B00010822E96E4E00C941804ABE0B0E0E3E684
:1002C000F1E00C94EE036C017B018A01FC011782C2
:1002D0001682838181FFCCC1CE0101963C01F601DB
:1002E0009381F70193FD859193FF81917F0188238D
:1002F00009F4BAC1853239F493FD859193FF819158
:100300007F01853229F4B60190E00E945403E7CFC3
:10031000912C212C312CFFE1F315D8F08B3279F0A0
:1003200038F4803279F08332A1F4232D20611DC08E
:100330008D3261F0803369F4232D216016C0832D46
:100340008260382EE32DE4603E2E2AC0F32DF86043
:100350001DC037FC2DC020ED280F2A3040F08E3212
:10036000B9F436FC81C1232D2064322E19C036FE2B
:1003700006C08AE0989E200D1124922E11C0EAE05A
:100380002E9E200D1124222EF32DF0623F2E08C048
:100390008C3621F4832D8068382E02C0883641F4D3
:1003A000F70193FD859193FF81917F018111B3CF77
:1003B000982F9F7D9554933028F40C5F1F4F9FE337
:1003C00099830DC0833631F0833771F0833509F09E
:1003D00059C021C0F801808189830E5F1F4F882496
:1003E0008394912C530113C02801F2E04F0E511C4D
:1003F000F801A080B18036FE03C0692D70E002C014
:100400006FEF7FEFC5010E9449034C018201F32D7C
:10041000FF773F2E16C0280122E0420E511CF80142
:10042000A080B18036FE03C0692D70E002C06FEF7E
:100430007FEFC5010E943E034C01F32DF0683F2E73
:10044000820133FC1BC0822D90E088169906B0F41F
:10045000B60180E290E00E9454032A94F4CFF501A3
:1004600037FC859137FE81915F01B60190E00E94D3
:10047000540321102A9421E0821A910881149104D6
:1004800071F7E8C0843611F0893641F5F80137FE7E
:1004900007C060817181828193810C5F1F4F08C00A
:1004A00060817181072E000C880B990B0E5F1F4F26
:1004B000F32DFF763F2E97FF09C09095809570959C
:1004C00061957F4F8F4F9F4FF0683F2E2AE030E0BD
:1004D000A3010E949003882E861845C0853731F409
:1004E000232D2F7EB22E2AE030E025C0932D997F58
:1004F000B92E8F36C1F018F4883579F0B5C0803741
:1005000019F0883721F0B0C0E92FE061BE2EB4FEAB
:100510000DC0FB2DF460BF2E09C034FE0AC0292F88
:100520002660B22E06C028E030E005C020E130E0B1
:1005300002C020E132E0F801B7FE07C0608171819E
:10054000828193810C5F1F4F06C06081718180E0C2
:1005500090E00E5F1F4FA3010E949003882E861823
:10056000FB2DFF773F2E36FE0DC0232D2E7FA22EB2
:10057000891458F434FE0BC032FC09C0832D8E7EE2
:10058000A82E05C0B82CA32C03C0B82C01C0B92CD0
:10059000A4FE0FC0FE01E80DF11D8081803321F41F
:1005A0009A2D997EA92E09C0A2FE06C0B394B394D9
:1005B00004C08A2D867809F0B394A3FC11C0A0FE74
:1005C00006C0B21488F4280C922C9B180EC0B214EA
:1005D00060F4B60180E290E00E945403B394F7CF38
:1005E000B21418F42B1802C0982C212CA4FE10C0B1
:1005F000B60180E390E00E945403A2FE17C0A1FC64
:1006000003C088E790E002C088E590E0B6010CC026
:100610008A2D867859F0A1FE02C08BE201C080E2EB
:10062000A7FC8DE2B60190E00E945403891438F4CF
:10063000B60180E390E00E9454039A94F7CF8A9425
:10064000F301E80DF11D8081B60190E00E94540392
:100650008110F5CF222009F442CEB60180E290E06D
:100660000E9454032A94F6CFF6018681978102C036
:100670008FEF9FEF2B96E2E10C940A04FC010590AA
:10068000615070400110D8F7809590958E0F9F1F94
:100690000895FC016150704001900110D8F78095D9
:1006A00090958E0F9F1F08950F931F93CF93DF9305
:1006B000FB01238121FD03C08FEF9FEF2CC022FFA0
:1006C00016C046815781248135814217530744F46F
:1006D000A081B1819D012F5F3F4F318320838C9397
:1006E000268137812F5F3F4F3783268314C08B01CC
:1006F000EC01FB010084F185E02D0995892BE1F6E1
:10070000D80116968D919C911797019617969C93F8
:100710008E931697CE01DF91CF911F910F9108957F
:10072000FA01AA27283051F1203181F1E8946F9322
:100730006E7F6E5F7F4F8F4F9F4FAF4FB1E03ED0C8
:10074000B4E03CD0670F781F891F9A1FA11D680F66
:10075000791F8A1F911DA11D6A0F711D811D911D99
:10076000A11D20D009F468943F912AE0269F11240E
:100770003019305D3193DEF6CF010895462F477072
:10078000405D4193B3E00FD0C9F7F6CF462F4F70CD
:10079000405D4A3318F0495D31FD4052419302D02B
:1007A000A9F7EACFB4E0A6959795879577956795D1
:1007B000BA95C9F700976105710508959B01AC01D1
:1007C0000A2E06945795479537952795BA95C9F7F8
:1007D000620F731F841F951FA01D08952F923F92D3
:1007E0004F925F926F927F928F929F92AF92BF9241
:1007F000CF92DF92EF92FF920F931F93CF93DF93ED
:10080000CDB7DEB7CA1BDB0B0FB6F894DEBF0FBE49
:10081000CDBF09942A88398848885F846E847D8496
:100820008C849B84AA84B984C884DF80EE80FD8098
:100830000C811B81AA81B981CE0FD11D0FB6F8940E
:0E084000DEBF0FBECDBFED010895F894FFCFCF
:10084E00506F74313A20253375202020506F74324A
:10085E003A202533750D0A0000000100000000014A
:0E086E00010001000100010100000101000075
:00000001FF
