:100000000C9434000C9451000C9451000C94510049
:100010000C94EF010C9451000C9451000C9451007D
:100020000C9451000C9451000C9451000C9451000C
:100030000C9451000C9451000C94A4010C945100A8
:100040000C9451000C9451000C9451000C945100EC
:100050000C9451000C9451000C9451000C945100DC
:100060000C9451000C94510011241FBECFEFD8E026
:10007000DEBFCDBF11E0A0E0B1E0E0E0F4E002C0FF
:1000800005900D92A831B107D9F721E0A8E1B1E0C0
:1000900001C01D92A532B207E1F70E94CE000C9478
:1000A000FE010C9400008A3030F4E82FF0E0E35FAA
:1000B000FE4F80818BB90895FC018181861719F06C
:1000C0006183128208958281893160F48F5F828317
:1000D000893141F48081882321F0611102C081E0DF
:1000E0008383608308958FEF8AB91BB884B18360DE
:1000F00084B985B18C7F85B987B1887F87B988B18C
:10010000876088B9089582E084BD9AEF97BD93E037
:1001100095BD80936E000895E8E6F0E080818260EE
:100120008083ECE6F0E08081876080830895CF9340
:10013000DF9366B1617086B181FBDD27D0F986B1AE
:1001400082FBCC27C0F988E091E00E945C0080919E
:100150002401823051F46D2F84E091E00E945C0014
:100160006C2F80E091E00E945C00DF91CF910895B8
:1001700080911A01843038F081E08093180183E087
:1001800080932401089580911901843030F082E039
:100190008093180183E08093240108950E947300E6
:1001A0000E9483000E948C0078948091220190919B
:1001B0002301892B39F110922301109222010E9410
:1001C0009700809124018130E9F480912001909181
:1001D000210101969093210180932001883E934054
:1001E00088F0109221011092200180910C01882347
:1001F00031F080910C01815080930C0103C082E0AA
:100200008093240180912401813029F130F08230E3
:1002100061F1833009F476C0C8CF10921D011092AD
:100220001C0110921E0180910B01882309F4BDCF9F
:1002300010920B0185E080930C0110922101109225
:10024000200110921A01109219011092180181E0F8
:1002500080932401AACF80910C0180931D0181E03D
:1002600080931C0110921E01A0CF8091070188236A
:1002700059F01092070180911A01843028F480917E
:100280001A018F5F80931A0180910301882359F02E
:100290001092030180911901843028F48091190192
:1002A0008F5F8093190180911A01882361F020915A
:1002B0001A0130E02150310981E001C0880F2A95F0
:1002C000EAF7982F01C090E080911901882359F036
:1002D0004091190150E04150510921E001C0220F25
:1002E0004A95EAF701C020E030E1939FC001112454
:1002F000922F9F70892B80931E0110921C010E94E7
:10030000B80053CF80911801813039F480EF809389
:100310001E0181E080931D010AC080911801823086
:1003200031F48FE080931E0182E080931D0181E013
:1003300080931C0180910B01882309F436CF109221
:100340000B011092240131CF1F920F920FB60F9222
:1003500011242F933F934F935F936F937F938F93CA
:100360009F93AF93BF93EF93FF938091220190915E
:1003700023010196909323018093220185B18C7F04
:1003800085B980911F01811111C080911C018823C2
:1003900029F080911D010E94530001C01BB885B156
:1003A000816085B981E080931F0108C080911E01A2
:1003B0008BB985B1826085B910921F01FF91EF91D1
:1003C000BF91AF919F918F917F916F915F914F916D
:1003D0003F912F910F900FBE0F901F9018951F9275
:1003E0000F920FB60F9211248F9381E080931B011F
:1003F0008F910F900FBE0F901F901895F894FFCF1C
:10040000010100000101000001010000053F065B41
:080410004F666D7D077F6F0050
:00000001FF
