:100000000C9434000C9451000C9451000C94510049
:100010000C94C1000C9451000C9451000C945100AC
:100020000C9451000C9451000C9451000C9451000C
:100030000C9451000C9451000C94AA000C945100A3
:100040000C9451000C9451000C9451000C945100EC
:100050000C9451000C9451000C9451000C945100DC
:100060000C9451000C94510011241FBECFEFD8E026
:10007000DEBFCDBF11E0A0E0B1E0E8EAF1E002C0F0
:1000800005900D92AC30B107D9F721E0ACE0B1E0BA
:1000900001C01D92AF30B207E1F70E9480000C94BE
:1000A000D2000C9400008A3030F4E82FF0E0EF5FCB
:1000B000FE4F80818BB908958FEF8AB91BB884B148
:1000C000836084B985B18C7F85B987B1887F87B912
:1000D00088B1876088B9089582E084BD9CE997BDA6
:1000E00095E095BD80936E000895E8E6F0E080818C
:1000F00082608083ECE6F0E08081876080830895F1
:100100000E945C000E946C000E94750078948091AF
:100110000C018130D1F480910D0190910E01843653
:10012000910598F010920E0110920D01809100013E
:10013000882331F08091000181508093000105C037
:1001400085E08093000110920C01809100010E94D3
:100150005300DDCF1F920F920FB60F9211248F9391
:100160009F9380910D0190910E01019690930E0145
:1001700080930D019F918F910F900FBE0F901F9054
:1001800018951F920F920FB60F9211248F933099EA
:1001900003C081E080930C018F910F900FBE0F90F0
:0801A0001F901895F894FFCFA1
:0C01A800053F065B4F666D7D077F6F0012
:00000001FF
