S01400004C6162365F626F746F6E65732E7372656372
S11300000C9434000C9449000C9449000C9449005D
S11300100C9449000C9449000C9449000C94490038
S11300200C9449000C9449000C9449000C94490028
S11300300C9449000C9449000C9449000C94490018
S11300400C9449000C9449000C9449000C94490008
S11300500C9449000C9449000C9449000C944900F8
S11300600C9449000C94490011241FBECFEFD8E032
S1130070DEBFCDBF11E0A0E0B1E0E8E6F1E002C0F0
S113008005900D92A630B107D9F70E9466000C9432
S1130090B2000C94000096B1892F817090FF15C0B6
S11300A0319B0AC0329B0AC0339B0AC04E9B0AC0D4
S11300B04A990AC085E0089581E0089582E0089590
S11300C083E0089584E008958FEF089587B1807FD9
S11300D087B988B18F6088B98AB18B7B8AB98BB1B3
S11300E084648BB90E949A00DFEF0E944B00C82FF2
S11300F0D817C9F02FEF89EF90E02150804090404D
S1130100E1F700C000000E944B00C8130CC0CF3FB1
S113011049F0EC2FF0E0E050FF4F80810E94AB00EB
S1130120DC2F01C0DC2F8FE99FE00197F1F700C0BD
S11301300000DBCF8AB182608AB91092C00088E0E7
S11301408093C10086E08093C2001092C50087E6C8
S11301508093C40008959091C00095FFFCCF8093D4
S10B0160C6000895F894FFCFD6
S1090168524C44554142D3
S9030000FC
